:100000000C9471020C94B8020C94B8020C94B802CF
:100010000C94B8020C94B8020C94B8020C94B80278
:100020000C94B8020C94B8020C94F3210C94C722DF
:100030000C94791C0C94B8020C94B8020C94B8027D
:100040000C94B8020C94B8020C94B8020C94B80248
:100050000C94B8020C94D01C0C94B8020C94B80206
:100060000C94B8020C94B8020C94B8020C94B80228
:100070000C94B8020C94B8020C94B8020C94B80218
:100080000C94B8020C94B8020C94B8020C94B80208
:100090000C94B8020C94B8020C94B8020C94B802F8
:1000A0000C94B8020C94B8020C94B80229003B00DE
:1000B0003D003F004100430045003A003C003E0047
:1000C00040004200440068001E002000220024007E
:1000D00026002D00310035001F00210023002500DF
:1000E00027002E002B001A0015001C000C00130026
:1000F0003000140008001700180012002F00310013
:10010000040007000A000D000F0034002A00390027
:10011000160009000B000E0033002800E1001D004E
:100120000600050010003700E50064001B00190000
:10013000110036003800E600E000E300E2002C0089
:100140000151E700E40002516A006C006E0070008B
:100150007200010069006B006D006F007100730098
:100160000100010001000100010001000100010087
:100170000100010001000100010001000100010077
:1001800001000100010046004800010001000100DB
:1001900001000100470052000100A900A800010071
:1001A00001004B004F002A000100AA00AE00010030
:1001B0004A0050000100010001000100010001009F
:1001C0004E00010001000100010001004D0051003E
:1001D0000100010001000100010001000100010017
:1001E0000100010001000100010001000100005CAC
:1001F00001000100010001000100010001000100F7
:1002000001000100010001000100010001000100E6
:1002100001000100010001000100010001000100D6
:1002200001000100010001000100010001000100C6
:1002300001000100010001000100010001000100B6
:1002400001000100010001000100010001000100A6
:100250000100010001000100010001000100010096
:100260000100010001000100010001000100010086
:100270000100010001000100010000000000000079
:1002800000002A2B280000000000000000000000F1
:10029000000000000029000000002C1E3420212254
:1002A00024342627252E362D3738271E1F202122BD
:1002B000232425263333362E37381F040506070836
:1002C000090A0B0C0D0E0F10111213141516171826
:1002D000191A1B1C1D2F3130232D35040506070864
:1002E000090A0B0C0D0E0F10111213141516171806
:1002F000191A1B1C1D2F3130354C00000000000066
:1003000000000000000000000000000000000000ED
:1003100000000000000000000000000000007E0F50
:1003200000D4FFFFFFC7000000781C034E007900D7
:10033000680078006900730020004E0046005200FB
:100340002D003700300000000E034E0079006800D9
:1003500078006900730000000403090409025B00CF
:10036000030100A0FA0904000001030101000921B2
:10037000110100012240000705810308000A090459
:1003800001000203000000092111010001222200E6
:10039000070582032000010705030320000109046B
:1003A0000200010300000009211101000122B60032
:1003B0000705840320000A1201100100000008CD87
:1003C000AB01000100010200010660FF0961A1010B
:1003D0000962150026FF0095207508810209631542
:1003E0000026FF00952075089102C005010902A1B1
:1003F0000185020901A10005091901290815002537
:100400000195087501810205010930093115812521
:100410007F95027508810609381581257F9501753C
:10042000088106050C0A38021581257F950175089B
:100430008106C0C005010980A101850319012AB701
:1004400000150126B700950175108100C0050C0943
:1004500001A101850419012AA002150126A0029517
:100460000175108100C005010906A1018505050778
:1004700019E029E715002501950875018102050796
:10048000190029EF1500250195F075018102050875
:1004900019012905950575019102950175039101D1
:1004A000C005010906A101050719E029E715002586
:1004B00001950875018102950175088101050719EB
:1004C0000029FF150026FF00950675088100050824
:1004D0001901290595057501910295017503910191
:1004E000C00011241FBECFEFDAE0DEBFCDBF04B6DF
:1004F00003FE27C08091AD029091AE02A091AF02A1
:10050000B091B0028730904BA740B04BD1F410921D
:10051000AD021092AE021092AF021092B00214BE61
:1005200084B7877F84BF0FB6F894A8958091600048
:10053000886180936000109260000FBEE0E0F8E3F5
:10054000099511E0A0E0B1E0EAE5FAE402C0059007
:100550000D92A839B107D9F722E0A8E9B1E001C0AE
:100560001D92AD3AB207E1F70E94B31E0C94F0243D
:100570000C94000081E0089581E008950C94BC0281
:1005800008950C94C0021F93CF93DF9300D000D046
:100590000F92CDB7DEB749835A836B833091C80180
:1005A00089819A8131111DC06623B9F02223A9F0F7
:1005B0000E944419182F682F89819A810E94F0188F
:1005C00069817A81812F0F900F900F900F900F907B
:1005D000DF91CF911F910C948E0C0E941C19182F43
:1005E000EFCF0E94441969817A81EDCFFC01262F5B
:1005F000408151816281738184810C94C302CF93C5
:10060000DF93EC0160E00E94F602BE01DF91CF9122
:100610000C94C1028F929F92AF92BF92CF92DF92C1
:10062000EF92FF920F931F936B017C0181E090E0AA
:10063000A0E0B0E04C015D0104C0880C991CAA1C2C
:10064000BB1C4A95D2F7B501A4014C015D0104C061
:10065000880C991CAA1CBB1C2A95D2F74829592939
:100660006A297B2904C0880F991FAA1FBB1F0A95FE
:10067000D2F78A019B010C211D212E213F21041755
:1006800015072607370789F48C299D29AE29BF292C
:10069000BC01CD011F910F91FF90EF90DF90CF90A3
:1006A000BF90AF909F908F90089580959095A09562
:1006B000B0958C219D21AE21BF21EACF0F93382F19
:1006C000262F60913302709134028091350290910F
:1006D0003602042F432F0E940A030F910C942E1808
:1006E0000E94D1060C94F6060C94F90608950E9417
:1006F0005A140E9476032FEF84E39CE0215080403F
:100700009040E1F700C000000C94F41C0F931F937D
:10071000CF93DF938C0161E00E94F602EC01B801F7
:100720000E94D60A8823D9F1B801CE010E94BE02E8
:100730008823A9F1B801CE010E94C50D882379F163
:10074000B801CE010E94170E882349F1B801CE01ED
:100750000E943A0F882319F1F8018281882361F001
:10076000CA35FDE5DF0721F170F4C115ECE5DE07C0
:10077000A1F0CE3DDC45C9F0C801DF91CF911F91BA
:100780000F910C94BA02CB358DE5D807A1F0CC358A
:10079000DD4591F70E94EB19EFCF0E94770380E0CF
:1007A000DF91CF911F910F9108950E94641BF7CFA5
:1007B0000E94F419E1CF0E94F719DECFDF92EF9289
:1007C000FF920F931F93CF93DF93E82FF0E0E6584B
:1007D000FD4FD490282F26952695269530E0F901D7
:1007E000E65EFC4F0491877010E0082E02C015955C
:1007F00007950A94E2F701701127F901E65FFC4FB3
:10080000E490F12C082E02C0F594E7940A94E2F7E4
:1008100091E0E922FF24F901E650FD4FC491D0E0B8
:1008200002C0D595C7958A95E2F7C170DD270115FD
:10083000110519F081EE0E94DA10E114F10419F0AB
:1008400086EE0E94DA108D2D0E94D911EF2819F042
:1008500086EE0E946C11012B19F081EE0E946C1142
:10086000CD2B51F08CE2DF91CF911F910F91FF9032
:10087000EF90DF900C94D911DF91CF911F910F91E0
:10088000FF90EF90DF900895EF92FF920F931F93E8
:10089000CF93DF93EC01162F0AE08881882309F4B7
:1008A00054C0813009F04EC08981813099F47E01B5
:1008B00022E0E20EF11C8A810E94D911E701219603
:1008C000812F815050F3EFE9FFE03197F1F700C03D
:1008D0000000F7CF823041F47E0182E0E80EF11C87
:1008E0008A810E94DA10EACF833041F47E01E2E08F
:1008F000EE0EF11C8A810E946C11E0CF843011F061
:100900002196DDCF2A81229690E080E0AE014F5FF4
:100910005F4F2053330B2A30310548F0019778F2AE
:10092000EFE9FFE03197F1F700C00000F7CF089F33
:10093000B001099F700D1124C901860F971F2981ED
:10094000EA01E4CF0E94DE03BACFDF91CF911F917D
:100950000F91FF90EF90089560E00C944404089587
:100960000C94AF0481E008950C94B204CF93C82F87
:100970000E94B0048C2FCF910C94B40490E080E0DE
:1009800008950895FC01EE0FFF1FE65DFC4F859171
:1009900094910895CF93DF930E948E0C0E94DF05FF
:1009A000EC01811520E5920708F042C0811530E482
:1009B000930708F0BDC0883E910528F5803E91055B
:1009C00008F09DC0883A910588F4853A910508F0B1
:1009D0008FC08130910509F492C0009709F48FC04F
:1009E000049708F08CC0D0E0C0E089C08F3B91052F
:1009F00008F489C0805C9109C03CD105A0F30E9435
:100A0000C204EC017CC08115904250F4C11581E014
:100A1000D80708F074C0C03FD10528F3D0656FC077
:100A2000C11590E3D90708F079C0CE019F70E7CFD8
:100A3000811525E5920758F5811534E5930708F0EF
:100A4000A6C0811542E5940750F4C11581E5D80789
:100A500008F471C0DC2FCC27C16FD06A50C0982F2A
:100A6000969596959E0123703327C115D34508F0BE
:100A70007FC0C1E0D0E002C0CC0FDD1F2A95E2F7B5
:100A800020E2929FC0011124C82BD92B6FC0C11541
:100A900089E5D807A8F4C11598E5D90708F07CC006
:100AA000C11526E5D20708F09ECF8C2F0E9476064E
:100AB000C82FD0E0DC2FCC27CC27DF71D0621FC03D
:100AC000C1153AE5D30708F46CC0CE0190568115E4
:100AD000904208F088CF8D2F8F710E94760690E0AB
:100AE000982F882788279F719C012C2BE901E6CF3E
:100AF000C55AD0E0CD5BDE4FC881D0E0D064CE01D6
:100B0000DF91CF910895C85AD0E0CC0FDD1FCB5EA6
:100B1000DE4F0990D881C02DD464F1CFCE01992742
:100B2000D3FF03C0EC01D86CEACFEC01D06CE7CF67
:100B3000DF70D06AE4CFCE01E4E096958795EA9520
:100B4000E1F783702C2F26952695237090E2299F3C
:100B500090011124382B8C2F8370C1E0D0E002C0AB
:100B6000CC0FDD1F8A95E2F7C22BD32BDC68C7CFF1
:100B7000C1E0D0E002C0CC0FDD1F2A95E2F730E2E1
:100B8000939FC0011124C82BD92BDA68B8CFD82F76
:100B9000CC27C46FD06AB3CFDC2FCC27C06FD06A0C
:100BA000AECF8C2F8F700E94760634E0D695C79515
:100BB0003A95E1F7CF709C2FEC01D069A0CF823835
:100BC0009105B1F1B0F48133910509F475C048F491
:100BD0008932910509F469C08A32910509F473C01C
:100BE00008958533910509F459C08933910501F1C0
:100BF0000895833E9105A9F138F4803E9105F9F0FE
:100C0000823E910549F10895863E9105A9F1873EFE
:100C10009105C9F1843E910519F52091850221FFC6
:100C20001FC08091840284FD14C087EE90E0089577
:100C3000209184022370A1F080EE90E0089520912D
:100C4000840220FD47C03091850230FF09C024FF97
:100C500044C090E080E004C02091840222FDF7CFE0
:100C600008952091840222FD3BC03091850230FD21
:100C7000E3CF24FFF5CFEDCF2091840223FFF0CF07
:100C800024FDE7CFD2CF2091840223FD2CC03091E8
:100C9000850231FFEECF84EE90E00895209184022A
:100CA00025FFDECF89E290E008952091840225FFA0
:100CB000D7CF85E390E008952091840226FFD0CF1E
:100CC0008AE290E008952091840226FFC9CF81E353
:100CD00090E0089589E390E0089583EE90E0089510
:100CE00082EE90E0089586EE90E00895909184025F
:100CF00092FF06C0282F28712830F9F4877F84607E
:100D000093FF06C0282F28712831F1F4877E846173
:100D10002091850220FF06C0382F38713830D9F471
:100D2000877F816021FF06C0282F28712831D1F4E8
:100D3000877E816194FD877E0895282F2471243059
:100D4000F9F68B7F8860DCCF282F2471243101F7DE
:100D50008B7E8861DDCF382F3171313019F78E7F6E
:100D60008860E0CF282F2171213121F78E7E8861A4
:100D7000E1CF0C94B00A0E9446078FE39CE90197EB
:100D8000F1F700C000000E94460780E00E94FB06C9
:100D900080FF04C00E94B9060C94F41C08950C94C2
:100DA000BB060E94BF1A811102C00E94641B0E94F0
:100DB000CA1A809360020E94D21A9093850280938F
:100DC00084020E94CF060E94CE1A682F70E090E045
:100DD00080E00E94F217609133027091340280919A
:100DE0003502909136020C942C1808950C94F50657
:100DF00008950C94F806E82FF0E0EF56FD4F80813F
:100E00000895089580EA8A95F1F7089500C008953D
:100E10000C940207F894E82FE295EF70F0E031A10E
:100E2000282F2F7081E090E001C0880F2A95EAF703
:100E3000982F9095932391A392A1892B82A37894C4
:100E40000895CF93DF93CDE4D1E089910E940A0702
:100E500081E0C835D807C9F7C6E4D1E089910E947E
:100E60000A0781E0CD34D807C9F7E6E8F2E0A1E946
:100E7000B2E011921D9282E0E139F807D1F78BE0E0
:100E80000E94BD07DF91CF910C947003CF92DF9247
:100E9000EF92FF920F931F93CF93DF93CDE4D1E0B6
:100EA00006E812E0D12CEE24E394F12C8991F89419
:100EB000E82FE295EF70F0E021A18F70A70102C04A
:100EC000440F551F8A95E2F7CA01922F982B91A3E0
:100ED00092A18095892382A378940E940607E6E474
:100EE000F1E030E020E0C12C4191A42FA295AF7039
:100EF000B0E090968C9190E04F7002C095958795E8
:100F00004A95E2F780FD35C08E2D022E01C0880F74
:100F10000A94EAF7C82A2F5F3F4F2730310521F79F
:100F2000FE01319780810E940A070E940807F8019C
:100F30008081C81601F1C08281E0D82A0F5F1F4F5F
:100F4000F1E0C835DF0709F0B1CF2D2D4BE061E9A5
:100F500072E086E892E00E94BE070E9474038D2D25
:100F6000DF91CF911F910F91FF90EF90DF90CF9085
:100F7000089580E0CFCF80E0E0CF0895FF920F93F7
:100F80001F93CF93DF93F82E092F162FD72FC42F3F
:100F9000222349F081E080939C010E94A91C909338
:100FA0009B0180939A0180919C018823A1F08091FC
:100FB0009A0190919B010E94C11C069760F0EF2D51
:100FC000F02FA12FBD2FCE0FDF2FD11DEC17FD0766
:100FD00041F410929C01DF91CF911F910F91FF90EE
:100FE000089581918D93F2CF8091A30180FF12C06B
:100FF0006091050185E0689FB001112475956795A2
:101000007595679560387105A8F561157105A1F1B1
:10101000862F089581FF09C06091050185E0689FD2
:10102000B001112475956795EDCF6091050182FDA2
:101030000AC08091A2018823D1F0909104016091AF
:101040000501891728F085E0689FB0011124DACFE7
:10105000869FB001112485E0869F9001879F300D07
:101060001124692F70E0C9010E947924CBCF65E07B
:1010700070E0CECF8FE7089581E008958091A301BD
:1010800080FF0CC06091010170E0759567957595C2
:1010900067956115710549F1862F089581FF06C096
:1010A0006091010170E075956795F3CF6091010142
:1010B00082FD0BC09091A1019923A1F060910001E4
:1010C00080910101961738F0682F70E06038710543
:1010D00000F38FE70895899FC001112470E00E94FA
:1010E0007924F4CF61E070E0D7CF81E00895803FAC
:1010F00031F40E94F40781958093A7010895813F00
:1011000019F40E94F407F8CF823F31F40E94F407EB
:1011100081958093A6010895833F19F40E94F407F6
:10112000F8CF893F29F40E943E088093A8010895D2
:101130008A3F21F40E943E088195F7CF8B3F31F41E
:101140000E943E0881958093A90108958C3F19F46F
:101150000E943E08F8CF9CE0980F953070F4845FB1
:10116000990B21E030E001C0220F8A95EAF78091C7
:10117000A501822B8093A50108958D3F31F48091C4
:10118000A30181608093A30108958E3F21F4809193
:10119000A3018260F7CF8F3FB9F78091A3018460EC
:1011A000F1CF4091A601803F59F48091A70187FFBC
:1011B0000DC01092A70141110BC01092A20108C0EE
:1011C000813F81F48091A70118169CF3442381F09C
:1011D0008091A8019091A901892B09F05AC0109221
:1011E000A1010895823F49F447FFF0CF1092A60174
:1011F0008091A7018111ECCFE0CF833F19F4141641
:10120000ACF3E4CF9091A801893F29F41916F4F6C4
:101210001092A801DBCF8A3F19F497FFD7CFF8CF00
:101220009091A9018B3F29F497FFD0CF1092A9018B
:10123000CDCF8C3F19F41916CCF3C8CF9CE0980F92
:10124000953090F4845F990B21E030E0B90102C041
:10125000660F771F8A95E2F7CB0180959091A501E3
:1012600089238093A501B2CF8D3F31F48091A301F2
:101270008E7F8093A301AACF8E3F21F48091A3019A
:101280008D7FF7CF8F3F09F0A1CF8091A3018B7F96
:10129000F0CF08950E94A91C9C019091A601809115
:1012A000A701982B21F03093A00120939F019091EA
:1012B000A8018091A901982B21F030939E012093E1
:1012C0009D0184EA91E00C948F0FEF92FF920F93AF
:1012D0001F93CF93DF9300D000D000D0CDB7DEB7FF
:1012E00086E0E4EAF1E0DE01119601900D928A9524
:1012F000E1F7E090A601F090A7010091A8011091FC
:10130000A9011092A6011092A7011092A8011092B3
:10131000A9018E2D8F2991F080919F019091A001BC
:101320000E94C11CAC019091A201992309F43FC015
:10133000809106018417150608F447C0802F812B81
:1013400091F080919D0190919E010E94C11CAC0181
:101350009091A101992309F477C08091020184172B
:10136000150608F47FC08091A6019091A701892BF2
:101370009091A801892B9091A901892B11F00E94CD
:101380004A0986E0FE013196A4EAB1E001900D928F
:101390008A95E1F726960FB6F894DEBF0FBECDBF53
:1013A000DF91CF911F910F91FF90EF9008952091C1
:1013B00007018AE0289F900111242417350708F0BF
:1013C000BDCF9F5F9093A20102C09F3FD1F7EE2057
:1013D00059F00E94F4079FEF1E140CF491E0899FCE
:1013E000802D11248093A601FF2059F00E94F4075C
:1013F0009FEF1F140CF491E0899F802D112480939E
:10140000A7013091A601332309F498CF2091A701B9
:10141000222309F493CF45EB3403C001112499230F
:1014200059F09093A60145EB240390011124332336
:1014300039F03093A70182CF81E08093A601F3CFEA
:1014400081E08093A7017ACF209103018AE0289F51
:10145000900111242417350708F085CF9F5F9093E2
:10146000A10102C09F3FD1F7002359F00E943E081E
:101470009FEF10160CF491E0899F802D112480932A
:10148000A801112359F00E943E089FEF11160CF499
:1014900091E0899F802D11248093A9013091A801AA
:1014A000332309F460CF2091A901222309F45BCFF3
:1014B00045EB3403C0011124992359F09093A801FE
:1014C00045EB240390011124332339F03093A90113
:1014D0004ACF81E08093A801F3CF81E08093A901F6
:1014E00042CF86E0E4EAF1E0DF011D928A95E9F758
:1014F0001092A2011092A1011092A301089583E21B
:1015000090E00E94AE24823289F484E290E00E944E
:10151000AE24873059F485E290E00E94AE2491E039
:10152000823109F090E0892F8170089580E0FCCF2E
:10153000CF93C82F6FEF811162E283E290E00E94A7
:10154000BC246FEFC11167E084E290E00E94BC24EC
:101550006FEFC11162E185E290E0CF910C94BC2461
:1015600080E00E94980A0C94B91A089586E290E0EF
:101570000E94AE24682F70E090E080E0089586E23B
:1015800090E00C94BC240E94B50A0E947F0A81114D
:101590000CC060E070E0CB010E94BF0A0E94060C04
:1015A0000E94F20C81E00C94980A0895CF93FB01FD
:1015B000C281CC2309F19C0122513F4520313105E4
:1015C00020F582510E94020DC0E08C2FCF9108952A
:1015D00081E00E94541843E062E081E00E945E03D3
:1015E000F3CF81E00E94751843E062E081E00E9441
:1015F0005E03EBCF82E0F6CF8031FFE59F0789F3F2
:1016000081319F45B9F3C1E0E0CF8031EFE59E071E
:10161000F9F281319F45C9F682E0DBCF2FEFFC0163
:1016200020830895EF92FF920F931F93CF93DF9340
:10163000EC01062FE881E150E33108F05EC0F0E0F4
:10164000EE50FB4D0C948D24198289E08A83602F23
:10165000CE01DF91CF911F910F91FF90EF900C94ED
:10166000A81D8981823069F0833071F08130D9F40E
:101670000E94B51C0E9493246A837B838C839D8384
:10168000E6CF0E94B60AF6CF7E0182E0E80EF11C9A
:1016900010E0812F0E94FB06F70181937F011F5FFD
:1016A0001B30B9F7D4CF602FCE010E940E0BCFCFE5
:1016B00089818230C1F76A817B818C819D810E9402
:1016C00093240E94BF0AC3CF4B816A8189810E9403
:1016D000D80B9827892798279D838C83B8CF2C8196
:1016E0003D813227232732274B816A8189810E94DD
:1016F000F10BADCF0E94060CAACF8FEF8883A7CF46
:101700000E949B0C8983A3CF0E949D0C9827892758
:1017100098279A8389839BCF6B8170E089819A8116
:10172000AE014C5F5F4F9827892798270E94A00C35
:101730008ECF6B8170E089819A81AE014C5F5F4FE3
:101740009827892798270E94C70C81CF0E94F20C06
:101750007ECF0E94C60BD6CF6B8170E089819A81C3
:10176000AE014C5F5F4F9827892798270E943E0C57
:101770006ECF6B8170E089819A81AE014C5F5F4FC3
:101780009827892798270E94640C61CF84E00895E8
:1017900050E0440F551F9EE0699F400D511D1124DC
:1017A0009AE9899F400D511D1124CA018796089519
:1017B0000F931F93CF93DF930E94C80B8C010E945D
:1017C000AE24C82FD0E0DC2FCC27C80101960E94A0
:1017D000AE249E01282BC901DF91CF911F910F915B
:1017E00008950F931F93CF93DF93122F032F0E941F
:1017F000C80BEC01602F0E94BC24612FCE01019622
:10180000DF91CF911F910F910C94BC24AF92BF92A6
:10181000CF92DF92EF92FF921F93CF93DF938CEAE8
:10182000C82E80E0D82ED0E07601C0E014C0F501CB
:1018300025913491412F6C2F8D2F0E94F10B82E066
:10184000A80EB11C1F5F173091F78EE0E80EF11C57
:10185000CF5FCB3019F0570110E0E9CFDF5F8AE9A5
:10186000C80ED11CD43001F7DF91CF911F91FF90AA
:10187000EF90DF90CF90BF90AF900895EF92FF92DE
:101880000F931F93CF93DF93EC018A017C01E60E47
:10189000F71ECE018796CE15DF0539F4DF91CF9183
:1018A0001F910F91FF90EF900895C83622E0D20764
:1018B00040F40E94AE24F80180830F5F1F4F2196F1
:1018C000E8CFF8011082F9CFCF92DF92EF92FF922A
:1018D0000F931F93CF93DF937C016A018C01060F56
:1018E000171FEC01CE018796C017D10749F4DF918D
:1018F000CF911F910F91FF90EF90DF90CF900895BF
:10190000C83622E0D20740F4FE01EE19FF09EC0DC3
:10191000FD1D60810E94BC242196E4CF462F8430B7
:1019200038F47B3028F4673018F4672F0C94D80B08
:1019300090E080E0089580E1089581E791E00895C6
:10194000EF92FF920F931F93CF93DF93EC018A01E5
:101950007C01E60EF71ECE0181579D4FCE15DF05A7
:1019600039F4DF91CF911F910F91FF90EF9008957F
:10197000C13721E0D20740F40E94AE24F8018083F1
:101980000F5F1F4F2196E7CFF8011082F9CFCF925A
:10199000DF92EF92FF920F931F93CF93DF937C011F
:1019A0006A018C01060F171FEC01CE0181579D4F74
:1019B000C017D10749F4DF91CF911F910F91FF908C
:1019C000EF90DF90CF900895C13721E0D20740F427
:1019D000FE01EE19FF09EC0DFD1D60810E94BC2483
:1019E0002196E3CFCF93DF93CFE8D2E060E0CE0142
:1019F0000E94BC242196C11584E0D807B9F7DF9175
:101A0000CF910895DF92EF92FF920F931F93CF93A0
:101A1000DF9300D000D0CDB7DEB7F82E8FE08F1562
:101A200040F08FEF93E00E94AE240FE812E088238D
:101A3000C1F00F900F900F900F90DF91CF911F91F9
:101A40000F91FF90EF90DF900895011584E0180743
:101A500081F3C8010E94AE24811101C0FA940F5F86
:101A60001F4FF110F2CF19821A821B821C82DD24D3
:101A7000D39478018FEFE81AF80AC8010E94AE24C7
:101A800089831A828823A9F29FEF980F933078F404
:101A90008A83D9820E5F1F4FC7010E94AE248B83B9
:101AA000882339F2CE0101960E94AC04E2CF87016F
:101AB000F9CF0F931F93CF93DF93C42FD22FFC0145
:101AC00082818823C9F04093AC010E94A91C9093A5
:101AD000AB018093AA0180E28C0F883008F050C0DF
:101AE000C77081E001C0880FCA95EAF7DF91CF91F6
:101AF0001F910F910C94E1111091AC01141335C09A
:101B00008091AA019091AB010E94C11C883C910573
:101B100060F5C0E2CD0F1D17B9F080E2810F88306B
:101B200040F4177081E001C0880F1A95EAF70E940F
:101B3000E811C83048F481E09D2F977001C0880FEC
:101B40009A95EAF70E94E111802F0E94D911C830BE
:101B5000B8F4D77081E001C0880FDA95EAF7DF9119
:101B6000CF911F910F910C94E81180E28C0F883077
:101B700038F4C77081E001C0880FCA95EAF7EFCF4B
:101B8000DF91CF911F910F9108950F939C01CB018D
:101B9000233F4CE5340759F1A8F4283DFCE53F0705
:101BA00001F1293D4CE53407D1F1273D3C4591F445
:101BB00006E221EE41EE67ED7CE50E94590D80E0E2
:101BC0000F910895253FFCE53F07E9F0B0F0263F6F
:101BD0003C45F9F0FC018281882339F11092AC0177
:101BE000EFCF07E225EE45EE68ED7CE5E6CF06E2B5
:101BF00021EE40EE63EF7CE5E0CF07E225EE44EE18
:101C000064EF7CE5DACF06E221EE42EE65EF7CE59B
:101C1000D4CF07E225EE46EE66EF7CE5CECF08E2B4
:101C200021E045EE69ED7CE5C8CF81E0C9CFCF93D7
:101C3000DF93EC01FB018281882309F419C1C230D2
:101C4000FCE5DF07C0F1C6319CE5D90730F09E0105
:101C50002A5F3C452930310570F50E94D21A9093D5
:101C6000850280938402C031ECE5DE0709F4CFC021
:101C700008F05BC0C8308CE5D80709F4B6C088F519
:101C8000C430ECE5DE0709F4A8C0C0F4C2308CE52E
:101C9000D80709F49CC0809184028260C330DC457F
:101CA00009F498C080918402909185020E94E01A04
:101CB0000E945A1480E0DF91CF91089580918402B0
:101CC0008061C630ECE5DE0709F484C080918402AF
:101CD0008860C730DC4508F47DC080918402806252
:101CE00079C0CC308CE5D80709F489C070F48091B4
:101CF00084028C60CA30ECE5DE0709F46BC008F49E
:101D000078C0809184028E7F65C0CE308CE5D80784
:101D100009F479C0809184028B7FCF30DC4508F4D0
:101D200059C0809184028F7E55C0CB3FECE5DE0721
:101D300009F457C030F5C3318CE5D80709F46FC0FA
:101D400078F4C131ECE5DE0709F465C0C231DC4549
:101D500009F0A8CF0E945A14809184028F773AC06C
:101D6000C5318CE5D80709F462C008F476C08091CB
:101D700085028160CA3FDC4509F094CF80938502DB
:101D800091CFCF3FFCE5DF0709F44DC088F4809187
:101D900085028D7FCD3F9CE5D90781F38091850237
:101DA0008E7FCE3FDC4550F3809185028360E6CF85
:101DB000C130FDE5DF0709F459C008F444C080E0F4
:101DC000C230DD4509F06ECF0E94661B6BCF80915B
:101DD000840281608093840265CF80918402846054
:101DE000F9CF809185028260C9CF8091840280649E
:101DF000F1CF0E945A14809184028068EBCF8091C9
:101E000084028D7FE7CF80918402877FE3CF80912A
:101E100084028F7DDFCF809184028F7BDBCF809126
:101E20008402837FD7CF809185028C7FA7CF80915A
:101E3000840282FB992790F921E0922790FB82F996
:101E400090FB83F9C7CF80918502982F9095917070
:101E50008E7F892B90FB81F991CF0E945A1490912B
:101E60008402892F97FB87F98058B4CF81E0ACCFEB
:101E700081E021CFCF93DF93EB0186319C4511F5B3
:101E80000E94FA199A81992399F08A7A91E009F4CB
:101E900090E09093AD01811109C089E20E94B419CC
:101EA0000E944A1A80E0DF91CF91089585E3F6CF32
:101EB0008091AD01811104C089E20E94BB19F0CF6D
:101EC00085E3FBCF81E0EFCF9093B3018093B20124
:101ED0000895E091B201F091B301309721F00190A3
:101EE000F081E02D099480E00895E091B201F09135
:101EF000B301309799F020911401222359F02091D9
:101F0000840227FF07C0DC012C9111962C931197B6
:101F100025E02C930280F381E02D09940895E0914F
:101F2000B201F091B301309739F022E0DC012C933B
:101F30000480F581E02D099408952091B00130913D
:101F4000B1012817390771F09093B1018093B00166
:101F5000E091B201F091B301309721F00680F78152
:101F6000E02D099408952091AE013091AF0128171A
:101F7000390771F09093AF018093AE01E091B20107
:101F8000F091B301309721F00084F185E02D0994A0
:101F900008950E94B51C6093C4017093C50180939D
:101FA000C6019093C7016093C0017093C1018093F3
:101FB000C2019093C301089585B7806885BF85B736
:101FC000806885BF0895089508950C94E30F0895DF
:101FD0000C94E70F0E94DC0F87EB9AE10E94051D2D
:101FE0000E94E40F0C94E50F81E008950C94F40F27
:101FF000089508950E94F80F0C94F90F0E94A01CF8
:102000000E9421070E94C30A0C94E80FAF92BF926E
:10201000CF92DF92EF92FF920F931F93CF93DF93B4
:10202000CDB7DEB72A970FB6F894DEBF0FBECDBF8F
:102030000E94460781110E94C90F85EBA82E81E0FE
:10204000B82E10E000E0C02E802F0E94FB06E82E84
:10205000F501F1905F01F81609F44DC0809160021E
:1020600081FD0E9401078F2D8E25D12CFF24F39432
:10207000982F9F21D9F10E94F60F882399F0DE82D4
:10208000CF82EF2081E009F480E088870E94A91CBC
:102090008160782F9A8789874E815F8168858A85DC
:1020A0000E94A310F801EB54FE4F8081F826F082C5
:1020B0000E9465090E94690F9091B401891791F1FE
:1020C0000E94690F8093B4012A960FB6F894DEBF80
:1020D0000FBECDBFDF91CF911F910F91FF90EF9079
:1020E000DF90CF90BF90AF900C94B604D394FF0CC8
:1020F000F7E0DF12BDCF0F5F1F4F0B30110509F066
:10210000A2CF8FEF89838A831B820E94A91C8160E2
:10211000782F9D838C8349815A816B818D810E94A8
:10212000A310C6CF2A960FB6F894DEBF0FBECDBF60
:10213000DF91CF911F910F91FF90EF90DF90CF90A3
:10214000BF90AF900895DF92EF92FF920F931F938D
:10215000CF93DF93CDB7DEB72B970FB6F894DEBFE2
:102160000FBECDBF7A878B87F42E052F162FE72E53
:10217000D82E61110E941A1A1E821D827E2DEC82B9
:10218000DD824F2D502F612F8D2D9E812B960FB606
:10219000F894DEBF0FBECDBFDF91CF911F910F919D
:1021A000FF90EF90DF900C94D016FC01808191811C
:1021B0000C948619CF93C82F882309F48BC08238DA
:1021C000C1F40E94690F81FD85C089E30E94B419A2
:1021D0000E944A1A2FEF81EE94E0215080409040F7
:1021E000E1F700C0000089E30E94BB19CF910C9475
:1021F0004A1A8338A1F40E94690F80FD6BC083E501
:102200000E94B4190E944A1A2FEF81EE94E02150E7
:1022100080409040E1F700C0000083E5E5CF8438BE
:10222000A1F40E94690F82FD55C087E40E94B41991
:102230000E944A1A2FEF81EE94E021508040904096
:10224000E1F700C0000087E4CFCF8CEF8C0F813A1C
:1022500090F46C2F80910801909109010E947F1BDE
:10226000882329F08C2F0E94BB190E944A1A8C2FB8
:102270000E94B419BBCF80E28C0F883048F4C7703D
:1022800081E001C0880FCA95EAF70E94FD19AECF20
:10229000EBE5EC0FE33040F4F0E0EA57FE4F8081CD
:1022A00090E0CF910C949D0FE8E5EC0FE73150F4EE
:1022B000F0E0EE0FFF1FE85AFE4F80819181CF9131
:1022C0000C94B30FC03F30F08C2F0E947708CF9151
:1022D0000C944A09CF910895882309F452C082389A
:1022E00071F40E94690F81FF4CC089E30E94B41908
:1022F0000E944A1A89E30E94BB190C944A1A833837
:1023000059F40E94690F80FF3CC083E50E94B41914
:102310000E944A1A83E5EFCF843859F40E94690F6E
:1023200082FF2FC087E40E94B4190E944A1A87E4F2
:10233000E2CF9CEF980F913AF0F290E2980F98302C
:1023400050F4877091E001C0990F8A95EAF7892FC0
:102350000E94031AD2CF9BE5980F933020F490E0AF
:1023600080E00C949D0F98E5980F973120F490E051
:1023700080E00C94B30F803F20F00E94D1080C94B1
:102380004A0908951F93CF93DF93182FEB010E9402
:10239000DA10209731F4812FDF91CF911F910C94A7
:1023A0006C118FE99FE00197F1F700C000002197C1
:1023B000F0CF70E060E0893311F460E570E00C94D8
:1023C000C211882321F00E94FD190C944A1A089525
:1023D000882321F00E94031A0C944A1A0895BF9290
:1023E000CF92DF92EF92FF920F931F93CF93DF93E1
:1023F0006C01D62FC72FFC011281058102950F7049
:102400000E94D219E82E8823A1F0E12E112389F031
:102410008C2F807F803429F080E28D0FE12C883072
:1024200040F082E00E949B1A0E94D21991E0E82EAF
:10243000E926BC2EB2949FE0B922EB2DF0E0EB5FD1
:10244000FA4D0C948D240C2F0F70C07F11F0029563
:10245000007F1123A9F0002359F080E28D0F88300E
:1024600010F0D11109C0802F0E94FD190E944A1A54
:102470008D2F0E94DA1014C0802F0E940D1AF6CF03
:102480008D2F0E946C11002359F080E28D0F88304F
:1024900010F0D1112CC0802F0E94031A0E944A1AFA
:1024A0002B2D2850330B2430310520F40E94690F66
:1024B0000E94B604EE2009F49EC10E94CE1980FD50
:1024C0009AC1F60112820E94C8190E945418C601CE
:1024D0000E941C140E94C819DF91CF911F910F9187
:1024E000FF90EF90DF90CF90BF900C947518802FE5
:1024F0000E94131AD3CFFC2FFF70FF2EC07FC03273
:1025000019F0F29480EFF822DD2369F0D13049F11F
:10251000112391F1002351F1F601858180FFA8CFAD
:102520008F70858323C0112381F0011106C00E94A2
:102530002D1A8F290E94E111B3CF0130C1F70E94FB
:102540002D1A8F290E94331AABCF011106C00E94A9
:10255000401A8F2D0E94E811A3CF013009F4A0CFBB
:10256000F6CF112329F0063008F09ACF8F2DE2CF55
:10257000053008F095CFEDCF002359F3D93349F456
:10258000FFEF27EE33E0F15020403040E1F700C08C
:1025900000008D2F0E946C1183CF8C2F869586951D
:1025A000837069F0813009F07BCF8D2F9C2F937061
:1025B000111102C090E080E00E94B30F71CF8D2F07
:1025C0009C2F9370111102C090E080E00E949D0F3B
:1025D00067CF8D2F112329F00E9477080E944A09A6
:1025E0005FCF0E94D108FACF8C2F837009F041C0D1
:1025F000111156CF4D2F429546954770440F440F09
:102600000D2F0F7010E030E020E0042E04C0000F0A
:10261000111F221F331F0A94D2F760E070E0CB0134
:10262000D4FF0FC06FE070E080E090E004C0660F60
:10263000771F881F991F4A95D2F7609570958095EE
:102640009095C695C695C370602B712B822B932BEA
:10265000C23049F058F4C13019F00E94061820CF5A
:102660000E94F4171DCF0E9418181ACF0E94F2176B
:1026700017CF8695112311F08C2F8170882309F4D0
:102680000FCF4D2F429546954770440F440F0D2FA5
:102690000F7010E030E020E0042E04C0000F111F86
:1026A000221F331F0A94D2F760E070E0CB01D4FF01
:1026B0000FC06FE070E080E090E004C0660F771F0D
:1026C000881F991F4A95D2F76095709580959095CF
:1026D000C695C695C370602B712B822B932BC2308D
:1026E00049F058F4C13019F00E94CB18D9CE0E949D
:1026F000B918D6CE0E94DD18D3CE0E942E18D0CEA7
:10270000CF70112329F08C2F0E9454188D2F12CFD7
:102710008D2F0E94E8118C2F0E947518C1CED23FD8
:1027200089F160F4D03FC9F0D13F29F1112309F4B8
:1027300042C001119DCE8C2F8F7121C0D33F39F142
:10274000D43FA1F7112369F1CF718C2F0E94541847
:1027500063E08C2F0E94801AA3CE112341F0053034
:1027600008F09ECE8C2F8F710E94981899CE06305B
:1027700008F096CEF7CF8C2F8F71112369F20E944B
:1027800054188ECE8C2F8F711123C9F3C5CF11230E
:1027900029F08C2F8F710E943F1882CE0E943A1828
:1027A0007FCE81E00E949B1A023008F479CE82E04D
:1027B0000E949B1A75CE002359F0D93309F0E9CE57
:1027C0008FEF97EEE3E081509040E040E1F7DFCEFD
:1027D0008C2F8F71A1CF4C2F4F706D2FC6010E948F
:1027E000BE040E946A175CCE4C2F4F706D2FC6013D
:1027F0000E94C10455CEDF91CF911F910F91FF90A0
:10280000EF90DF90CF90BF9008950F931F93CF93D9
:10281000DF93EC01688179818A810E9490198C0193
:102820000E94EF180E94F117B801CE01DF91CF91FD
:102830001F910F910C94EF11CF93DF93EC018B81DB
:102840009C81892B29F08881998189238F3F59F4B4
:10285000DF91CF910895CE010E940514CE01DF9142
:10286000CF910C94FF02CE010E9486038111F3CF19
:102870000E94D219882361F38A81882349F382E078
:10288000DF91CF910C949B1A90E080E00E949D0F05
:1028900090E080E00E94B30F0E941A1A0E942A1A48
:1028A0000E944A1A0E94710A0C944A090E94C21995
:1028B0000C9444140E940A1A0C945614E92FE295C1
:1028C000EF70E250EE3070F4F0E0EB5EFA4D0C94F5
:1028D0008D24803F19F020F4883E20F481E0089593
:1028E000843FE1F380E00895883EC0F3813FD1F753
:1028F000F5CF93FB882780F908950E9486190C94E0
:102900005E14CF93DF9300D000D00F92CDB7DEB727
:102910000F900F900F900F900F90DF91CF9108952F
:10292000CF93DF9300D000D000D0CDB7DEB726968E
:102930000FB6F894DEBF0FBECDBFDF91CF910895E3
:102940001F93CF93DF93C091C90116E08091CA0114
:102950008C1304C0DF91CF911F910895D0E01C9F8C
:10296000F0011D9FF00D1124E553FE4F4081518170
:1029700062817381848195810E9490142196C77031
:10298000E5CF4091FB015091FC016091FD017091F8
:10299000FE018091FF01909100020C9490141F930E
:1029A000CF93DF9380910002807FA9F48091FD0195
:1029B000882389F08091C901C091CA016091FB010F
:1029C0007091FC01A091FE01B091FF01D62FD72399
:1029D00016E0C81304C0DF91CF911F91089590E0D5
:1029E000109711F0DF3F19F401968770F2CF189F0E
:1029F0009001199F300D1124F901E553FE4F4181DB
:102A00004713F2CF40814613EFCF42814111ECCF03
:102A1000438154814A1B5B0B483C510528F7809148
:102A200000028F70806180930002F901E053FE4F35
:102A300080818F70806180838BEF91E00E941C14F5
:102A4000DF91CF911F910C94A014AF92BF92CF92BF
:102A5000DF92EF92FF920F931F93CF93DF93CDB747
:102A6000DEB761970FB6F894DEBF0FBECDBF8C0105
:102A700085E0F801DE011D9601900D928A95E1F73F
:102A8000F80140815181E2808BEFC82E81E0D82E81
:102A90006091FE017091FF016115710509F461C13A
:102AA0009091FB012091FC01892F82238F3F09F433
:102AB00058C1A380B480F090FD01F501E61BF70B2F
:102AC000FF2009F4FCC080910002382F307FE83CE1
:102AD000F10508F0B2C0311179C0FE2C251323C0D6
:102AE000941321C0E1101FC08F7080618093000299
:102AF0000E94C114C6010E941C1480910002F801BA
:102B000085838F2D61960FB6F894DEBF0FBECDBFC3
:102B1000DF91CF911F910F91FF90EF90DF90CF90B9
:102B2000BF90AF900895AB2829F0842F85238F3F65
:102B300009F033C180E0F82FF170DF2E80FF3CC038
:102B40008091C9012091CA0136E0821315C04D87DA
:102B50005E878D859E850E948619292F22952F706C
:102B60002230F0F0243018F59F70F1F0F8019581D3
:102B7000907FD1F4D12C1EC090E0389FF001399F96
:102B8000F00D1124E553FE4F6181651306C060818D
:102B9000641303C062816E110FC001968770D5CF98
:102BA0009F7011F0882331F3805E883018F3C801DC
:102BB0000E941C14FD2CA5CFEE2009F4A2CF809119
:102BC0000002816080930002F12C9BCF251306C088
:102BD000941304C0F801EE2009F48DC04D875E8780
:102BE0008D859E850E947D14882319F1EE2009F1C0
:102BF00080910002803270F02091FB013091FC0145
:102C000038872F831986BB86AA868C87CE010796C4
:102C10000E941C1486E0F801ABEFB1E001900D9228
:102C20008A95E1F70E94CF140E94C114FF24F39407
:102C300068CFC8010E941C14F9CF311113C07A2D3E
:102C4000B98AA88A6E2D89890E9481148BEF91E040
:102C50000E941C1486E0F60111928A95E9F70E9401
:102C6000C114B2CF25130FC094130DC0E1100BC0D7
:102C7000F8018583C8010E941C1486E0F6011192B8
:102C80008A95E9F73ECF4D875E878D859E850E94A8
:102C90007D14882371F2EE2061F28091000280326F
:102CA00008F4B8CF2091FB013091FC013A832983CD
:102CB0001B82BD82AC828E83CE010196A9CFE83CF7
:102CC000F10508F041C0FE2CEE2009F4B2CF251327
:102CD0002AC0941328C08091000280FD1BC0982F49
:102CE000907FC1F0F8018583903F31F0982F907F5D
:102CF000905F8F70892B8583C8010E941C1486E029
:102D0000F801ABEFB1E001900D928A95E1F70E94D6
:102D1000C114F7CE86E0F801ABEFB1E001900D925F
:102D20008A95E1F7EECE4D875E878D859E850E9460
:102D30007D1481116FCF8091000281608093000229
:102D4000C8010E941C14DDCE7A2DB98AA88A6E2D86
:102D500089890E94811486E0F60111928A95E9F72B
:102D6000D6CFEE2009F465CF4D875E878D859E8591
:102D70000E947D14F82E882309F45BCF86E0F801C9
:102D8000ABEFB1E001900D928A95E1F78BEF91E006
:102D90000E94D5100E94CF14BACF81E08E25CBCEF1
:102DA0001F93CF93DF93CDB7DEB72C970FB6F89470
:102DB000DEBF0FBECDBF4F83588769877A878B8769
:102DC0009C87CE0107960E942515882369F08A8585
:102DD0009B85892B39F04F815885842F85238F3F20
:102DE00009F071C016E05FC086E0FE013796DE0193
:102DF000119601900D928A95E1F78A859B85892B22
:102E000089F38F81988589238F3F61F32091CA01CF
:102E100030E0C9010196877099274091C901481790
:102E2000190671F40E945A141092CA011092C90135
:102E300086E0EBEFF1E0DF011D928A95E9F7D2CF52
:102E400096E0929FD001939FB00D1124A553BE4FE1
:102E5000FE01319601900D929A95E1F78093CA0197
:102E60000E94A014BFCF819FC001112485539E4FA3
:102E70000E9425158823E9F0E091C9011E9FF00109
:102E80001124E553FE4F4081518162817381848119
:102E900095810E9490148091C90190E001968770FD
:102EA00099278093C9018091C9019091CA01891322
:102EB000DACF2C960FB6F894DEBF0FBECDBFDF91F0
:102EC000CF911F91089569857A858B859C850E9495
:102ED000901488CFEF92FF920F931F93CF93DF93BD
:102EE0008C01892B81F0F12CEE24E394E8012196EA
:102EF000F8018491843770F4843008F05FC0813029
:102F0000B1F08230A1F1DF91CF911F910F91FF902D
:102F1000EF900895853709F44CC008F43DC09CE754
:102F2000980F903780F78F770E946C1149C00E5F21
:102F30001F4FFE01849190E2980F983060F48770E3
:102F4000FE2D01C0FF0F8A95EAF78F2F0E941D1AF0
:102F50000E944A1A02C00E94DA108F2D815030F26E
:102F6000EFE9FFE03197F1F700C00000F7CF0E5F07
:102F70001F4FFE01849190E2980F983050F48770B3
:102F8000FE2D01C0FF0F8A95EAF78F2F0E94231AAA
:102F9000DFCF0E946C11E1CF0E5F1F4FFE01C49185
:102FA000C150D8F28FE99FE00197F1F700C000000F
:102FB000F7CF0E5F1F4FFE01F490CFCF0E94DA10C3
:102FC0008E01CBCF08950C94E2170E94E317609313
:102FD0003702709338028093390290933A020C942E
:102FE000441408950C94E5170F931F930091370232
:102FF000109138022091390230913A02602B712BE6
:10300000822B932B1F910F910C94E5170F931F9315
:1030100000913702109138022091390230913A0222
:1030200060237123822393231F910F910C94E51742
:103030000F931F93009137021091380220913902AB
:1030400030913A0260277127822793271F910F91B1
:103050000C94E5170C94E2170C942A180E942C1873
:10306000609333027093340280933502909336025A
:103070000C94441460E070E0CB010C942E180F9374
:103080001F9341E050E060E070E08A019B0104C0C2
:10309000000F111F221F331F8A95D2F7C901B801F3
:1030A0001F910F910C942E180F931F9341E050E045
:1030B00060E070E004C0440F551F661F771F8A95BB
:1030C000D2F78091330290913402A0913502B091F1
:1030D00036028A019B01082B192B2A2B3B2BC90195
:1030E000B8011F910F910C942E180F931F9341E07C
:1030F00050E060E070E004C0440F551F661F771F6A
:103100008A95D2F7CB01BA0160957095809590951C
:103110000091330210913402209135023091360231
:1031200060237123822393231F910F910C942E18F7
:103130000F931F9341E050E060E070E004C0440F43
:10314000551F661F771F8A95D2F7809133029091A1
:103150003402A0913502B09136028A019B01082702
:1031600019272A273B27C901B8011F910F910C94F9
:103170002E180F931F930091330210913402209167
:10318000350230913602602B712B822B932B1F91CD
:103190000F910C942E180F931F93009133021091EE
:1031A000340220913502309136026023712382234C
:1031B00093231F910F910C942E180F931F9300913E
:1031C000330210913402209135023091360260278B
:1031D0007127822793271F910F910C942E18089521
:1031E00027E0929F800D1124982F977041E001C035
:1031F000440F9A95EAF786958695869595E0899F7E
:10320000F0011124EF5FFD4F90E080E070E05191FC
:10321000DF0111979B01082E02C0369527950A946D
:10322000E2F7217021952527242325272C93019649
:103230008530910561F7089527E0929F800D112454
:10324000982F977086958695869525E0829FF00148
:103250001124EF5FFD4F50E040E080E0219130E02D
:10326000092E02C0369527950A94E2F7217033277C
:10327000042E01C0220F0A94EAF7822B4F5F5F4FA2
:103280004530510559F70895BF92CF92DF92EF92E2
:10329000FF920F931F93CF93DF938C01C090330263
:1032A000D0903402E0903502F090360280913702DF
:1032B00090913802A0913902B0913A02C82AD92AD5
:1032C000EA2AFB2ACFE1D0E0BC2ED701C6010C2EA2
:1032D00004C0B695A795979587950A94D2F780FD77
:1032E0000EC0219788F7B12C8B2DDF91CF911F91C4
:1032F0000F91FF90EF90DF90CF90BF900895B801AD
:103300008C2F0E94CA04019761F3EECFCF93DF9315
:10331000EC010E944419BE01DF91CF910C94CA04C4
:103320001F93CF93DF93EB019091C801992331F064
:10333000CB01DF91CF911F910C948619882379F0EE
:10334000CB010E944419182F682FCE010E94F0185B
:10335000BE01812FDF91CF911F910C94CA04CB0144
:103360000E941C19182FF4CF682F809108019091AA
:1033700009010C94FF1B682F8091080190910901AD
:103380000C940A1C80910801909109010C94151C61
:1033900080913B02859585958595089580913B02A6
:1033A0008770089590913B02977081E009F480E066
:1033B00008959091850292FB222720F9281751F059
:1033C00080FB92F99093850280918402909185020E
:1033D0000C94E01A08958091850282FB882780F979
:1033E00091E089270C94D91981E00C94D91980E0D7
:1033F0000C94D91980915F02089590915F02892BF6
:1034000080935F020895809590915F029823909336
:103410005F02089510925F02089590915E02892BD9
:1034200080935E020895809590915E029823909318
:103430005E02089510925E02089590915D02892BBC
:1034400080935D020895809590915D0298239093FA
:103450005D02089510925D02089580913C020895E6
:1034600008950C94301A9091850292FD08C09091B5
:103470003C02981721F080933C020C94311A089575
:1034800080913C02882329F010923C0280E00C9449
:10349000311A0895E0910801F091090180915F02CD
:1034A0008083E0910801F0910901808190915E0292
:1034B000892B8083E0910801F0910901808190912E
:1034C0005D02892B808390913C02992381F0E091E9
:1034D0000801F09109018081892B80838091080186
:1034E000909109010E946B1B81110E94401A8091EA
:1034F0000801909109010C94750F08950C947D1AA0
:103500009091850292FD10C098E0899F900111244E
:10351000622B60933B020E94541880913B02859578
:10352000859585950C947E1A0C94541810923B0244
:1035300080E00C947E1A90913B02809589238093C1
:103540003B02282F277039F4282F082E000C330B4C
:103550009217130621F49091850292FF07C085957A
:10356000859585950E9475180C94961A089580E0AB
:1035700008956FEF7FEF90E080E00C94DA2490E004
:1035800080E00E94B62421E08A3E9E4F09F020E0B0
:10359000822F089582E090E00C94AE2483E090E0C6
:1035A0000C94AE24CF9384E090E00E94AE24C82F08
:1035B00082E290E00E94AE24982F8C2FCF91089544
:1035C000CF93C92F682F84E090E00E94BC246C2F19
:1035D00082E290E0CF910C94BC24AB01BC018FE05F
:1035E00090E00C94CE24AB01BC0183E190E00C94FC
:1035F000CE2460E070E0CB010C94F31A60E070E040
:10360000CB010E94ED1A0C94F91A6AEE7EEF90E05D
:1036100080E00E94DA2460E082E090E00E94BC2416
:1036200060E083E090E00E94BC2410923702109288
:1036300038021092390210923A0260E084E090E081
:103640000E94BC2460E082E290E00E94BC2460E022
:1036500085E090E00E94BC2460E086E090E00E945B
:10366000BC246FEF87E090E00E94BC2440E050E073
:10367000BA0188E090E00E94CE2460E08DE090E006
:103680000E94BC2440E050E0BA0188E190E00E9432
:10369000CE2460E087E190E00E94BC2440E050E04E
:1036A000BA018CE190E00E94CE2470E060E080E2FC
:1036B00090E00E94DA2440E050E0BA0188E190E016
:1036C0000E94CE240C94FE1A0C94051B682F8EE0E9
:1036D00090E00C94BC24FC01329680911401882364
:1036E00021F0809184029EE187FF96E080E0915076
:1036F00008F4089521912223D1F38F5FF8CF662338
:1037000001F1209114012223F1F02091840227FF7E
:103710001AC0462F4695469546954E3190F46770EF
:1037200021E030E002C0220F331F6A95E2F7840FD8
:10373000911DFC01828190E02823392381E0232B15
:1037400069F480E00895FC013296089621912617CD
:1037500021F0E817F907D1F7F4CF81E008959C0133
:10376000FC0132969FEF80E04191461751F09F3F58
:1037700019F4411101C0982F8F5F8630A9F79F3F40
:1037800009F40895290F311D97FD3A95F9016283D7
:103790000895FC01329608962191261303C0DF019B
:1037A00011971C92E817F907B9F70895E62FE695E7
:1037B000E695E695EE3168F4E80FF92FF11D677094
:1037C00021E030E001C0220F6A95EAF78281822B66
:1037D00082830895E62FE695E695E695EE3170F43E
:1037E000E80FF92FF11D677021E030E001C0220FD2
:1037F0006A95EAF7209582812823228308952091F3
:103800001401222329F02091840227FD0C94D61B59
:103810000C94AF1B20911401222329F020918402E3
:1038200027FD0C94EA1B0C94C91BFC013296809175
:103830001401882351F08091840287FF06C08EE135
:10384000DF011D928A95E9F7089586E0F9CF089582
:1038500008950C94281C8091A402843049F10E94A0
:10386000291C80E00E94B6041092610288E190E079
:1038700020E40FB6F894A895809360000FBE2093C3
:10388000600083B7817F846083BF83B7816083BF1B
:103890007894889583B78E7F83BF0FB6F894A895E8
:1038A00080916000886180936000109260000FBE7C
:1038B00008950895CF930E94271C0E9446070E94F6
:1038C000591CC0E08C2F0E94FB06811105C0CF5F00
:1038D000CB30C1F7CF91089581E0FCCF08950C94CF
:1038E0006E1C0E945A140E94690F0E94B6040C9428
:1038F0006F1C1F921FB61F9211248F939F93AF933B
:10390000BF9380916102811113C080919C029091BC
:103910009D02A0919E02B0919F024196A11DB11DF2
:1039200080939C0290939D02A0939E02B0939F026D
:10393000BF91AF919F918F911F901FBE1F901895BF
:1039400082E084BD93E095BD9AEF97BD80936E00B1
:1039500008952FB7F89480919C0290919D02A091B8
:103960009E02B0919F022FBF08952FB7F8946091E7
:103970009C0270919D0280919E0290919F022FBFA8
:1039800008959C014FB7F89480919C0290919D02FC
:10399000A0919E02B0919F024FBF821B930B08958E
:1039A00078941F921FB61F9211248F939F93AF9309
:1039B000BF9380919C0290919D02A0919E02B09134
:1039C0009F020196A11DB11D80939C0290939D02C0
:1039D000A0939E02B0939F02BF91AF919F918F9150
:1039E0001F901FBE1F90189587E797E790930108D7
:1039F0008093000888E19AE00FB6F894A895809328
:103A000060000FBE90936000FFCF90939901809368
:103A100098010895809182020895CF93DF9300D09A
:103A20000F92CDB7DEB79091A402943011F589833F
:103A30007B836A839093E9008FEF9091E800815037
:103A400095FD06C095ED9A95F1F700008111F5CF2F
:103A50008091E80085FF0DC050E040E063E070E039
:103A6000CE0101960E94991F8091E8008E77809385
:103A7000E8000F900F900F90DF91CF910895BC0157
:103A800084E00C940D1DBC0183E00C940D1D9C0181
:103A900084E08093E9009FEF8091E800915085FDDC
:103AA00006C085ED8A95F1F700009111F5CF809160
:103AB000E80085FF0CC050E040E066E070E0C9011E
:103AC0000E94991F8091E8008E778093E800089506
:103AD000CF93DF93EC01809114018823B1F18091A1
:103AE000840287FF32C060E284E08093E9008FEFB8
:103AF0009091E800815095FD06C095ED9A95F1F7FB
:103B000000008111F5CF8091E80085FF1BC08091F6
:103B1000140170E050E040E0811104C050E040E04A
:103B200068E070E0CE010E94991F8091E8008E77D6
:103B30008093E80080E2FE01A2E6B2E001900D92DF
:103B40008A95E1F7DF91CF91089568E081E0CDCFCC
:103B5000CF93FC01603221F58091A402843001F5FD
:103B6000C091E900CF702091EC00922F917020FD60
:103B700090E8C92B82E08093E9008091E80080FF03
:103B80000CC050E040E060E270E0CF010E94991F5D
:103B90008091E8008E778093E800CF70C093E900B1
:103BA000CF9108958091A302811109C00E947821CC
:103BB0000E94D5218091E20084608093E200089504
:103BC0001092A302089508950895089542E061ECCB
:103BD00081E00E94F42042E261EC84E00E94F42043
:103BE00042E261EC82E00E94F42042E260EC83E079
:103BF0000C94F4208091A602833009F461C030F463
:103C00008130D1F1823009F49DC008958A3009F4E1
:103C100089C08B3009F46FC0893009F050C08091A1
:103C2000A502813209F04BC08091A9029091AA02AD
:103C3000009719F0029709F042C08091E800877F51
:103C40008093E8008091E80082FF35C09091F300F6
:103C50008091F200029729F48091F1008B7F8130EE
:103C600021F48091F100809382028091E8008B77AB
:103C70008093E8000C9428218091A502813AF9F400
:103C80008091E800877F8093E8008091A90290915D
:103C9000AA02892B61F460E282E692E070E00E9461
:103CA00037208091E8008B778093E800089560E0EA
:103CB00090E080E0F3CF8091A4028111C3CF0895FA
:103CC0008091A502813AD9F78091A9029091AA0228
:103CD000892BA9F78091E800877F8093E800809185
:103CE000E80080FFFCCF809114018093F100809167
:103CF000E8008E77BDCF8091A502813201F78091D7
:103D0000A9029091AA02892BD1F68091E800877FC1
:103D10008093E8000E9428218091A70280931401DB
:103D20000C945A148091A502813249F68091E800E2
:103D3000877F8093E8000E9428218091A8028093C9
:103D4000830208958091A502813A09F0B8CF80914D
:103D5000E800877F8093E8008091E80080FFFCCF37
:103D600080918302C2CFCDB7DEB7A0970FB6F8948B
:103D7000DEBF0FBECDBF84B7877F84BF0FB6F89478
:103D8000A895809160008861809360001092600027
:103D90000FBE80E890E00FB6F89480936100909396
:103DA00061000FBE0E94EA0F0E9478210E94D52177
:103DB0008091E20084608093E20078940E945E2407
:103DC0000E94FE0F8AE091E00E94640F13E0809150
:103DD000A4028530B9F00E9406108091A4028430BC
:103DE000C1F00E94FA0FF3CF0E942B1C8091A20217
:103DF000882341F00E945A1C882321F00E94831FCF
:103E00000E945A148091A402853071F30E94711CA3
:103E1000E2CF1093E9008091E80082FFE2CF809129
:103E2000E80090E085FF09C050E040E060E270E00B
:103E3000CE0101960E94E81F91E08091E8008B7707
:103E40008093E800992369F260E2CE0101960E9416
:103E5000120BC7CF0C942C1F292F33272330310589
:103E600021F168F42130310509F443C022303105D5
:103E700009F444C090E080E030E020E026C0213228
:103E8000310551F122323105A9F76330710590F700
:103E9000FB01EE0FFF1FE457FE4F20813181675772
:103EA0007E4FFB01808190E010C099278130910501
:103EB00081F0009729F00297E9F6EAE2F3E002C008
:103EC000E8E5F3E0849190E09F01FA0131832083DB
:103ED0000895E8E4F3E0F6CF6330710558F6660F15
:103EE000771FFB01EE56FE4F2081318189E090E083
:103EF000ECCF82E190E027EB33E0E7CF8BE590E079
:103F00002CE533E0E2CF80E189BD82E189BD09B4CF
:103F100000FEFDCF8091D8008F7D8093D8008091E6
:103F2000E00082608093E0008091E00081FDFCCFA2
:103F30000895AF92BF92CF92DF92FF920F931F939B
:103F4000CF93DF936C01EB018A010E944721F82E89
:103F5000811123C00115110539F0F801808191818B
:103F6000C81BD90BC80ED91EB12CA12C2097A9F0C3
:103F70008091E80085FD22C08091E8008E778093D3
:103F8000E80001151105A1F0F80180819181A80ECA
:103F9000B91EB182A08285E0F82E8F2DDF91CF91DE
:103FA0001F910F91FF90DF90CF90BF90AF90089539
:103FB0000E9447218823D1F2F82EEFCFF60181919C
:103FC0006F018093F1002197FFEFAF1ABF0ACECFA8
:103FD000AF92BF92CF92DF92FF920F931F93CF9336
:103FE000DF936C01EB018A010E944721F82E8111B9
:103FF00023C00115110539F0F80180819181C81B9A
:10400000D90BC80ED91EB12CA12C2097A9F08091F4
:10401000E80085FD22C08091E8008B778093E8005E
:1040200001151105A1F0F80180819181A80EB91E3A
:10403000B182A08285E0F82E8F2DDF91CF911F9164
:104040000F91FF90DF90CF90BF90AF9008950E94A6
:1040500047218823D1F2F82EEFCF8091F100F601AD
:1040600081936F012197FFEFAF1ABF0ACECFFC01FA
:104070008091AB029091AC0286179707A0F0611572
:10408000710529F49091E8009E779093E80090E004
:104090006115710551F4911108C08091E80082FF0B
:1040A00034C080E00895BC01F2CF8091A40288233F
:1040B000C1F18530C1F18091E80083FD30C080916D
:1040C000E80082FDEACF8091E80080FFE1CF809197
:1040D000F3002091F200382F6115710519F0283096
:1040E000310558F091E02830310509F090E0209139
:1040F000E8002E772093E800CBCF81918093F100E8
:10410000615071092F5F3F4FE7CF8091A402882350
:1041100041F0853041F08091E80083FFBECF81E01F
:10412000089582E0089583E00895FC018091AB0238
:104130009091AC0286179707A0F06115710529F4DC
:104140008091E8008E778093E80090E0611571051A
:1041500051F4911108C08091E80082FF35C080E0E1
:104160000895BC01F2CF8091A4028823C9F1853063
:10417000C9F18091E80083FD31C08091E80082FDA3
:10418000EACF8091E80080FFE1CF8091F300209199
:10419000F200382F6115710519F02830310558F0FB
:1041A00091E02830310509F090E08091E8008E77A9
:1041B0008093E800CBCF84918093F10031966150D9
:1041C00071092F5F3F4FE6CF8091A402882341F011
:1041D000853041F08091E80083FFBDCF81E00895F4
:1041E00082E0089583E00895982F973028F08F702B
:1041F0008093E90081E008959093E900242F762FC1
:1042000050E0981731F07091EC002091ED00509142
:10421000F00021FD02C09F5FE8CF3091EB003E7FB0
:104220003093EB003091ED003D7F3093ED00309105
:10423000EB0031603093EB007093EC002093ED00C5
:104240005093F0002091EE0027FDE5CF80E0089527
:104250008091A50287FF13C08091E80082FF06C00D
:104260008091E8008B778093E80004C08091A402DD
:104270008111F2CF08958091A4028823D9F380910F
:10428000E80080FFF8CF8091E8008E77ECCF209196
:10429000E4003091E50095E6A9012091EC00822F21
:1042A000817020FF06C08091E80080FF06C080E09A
:1042B00008952091E80022FD1AC08091A40288236D
:1042C00089F0853089F08091EB0085FD0FC0209149
:1042D000E4003091E50042175307F9F29150E1F6FE
:1042E00084E0089582E0089583E0089581E00895D0
:1042F0000E94E6210E94EE21E0EEF0E080818160E4
:104300008083E8EDF0E080818F77808319BCA7ED92
:10431000B0E08C918E7F8C9380818F7E8083109211
:10432000A30208950F931F93CF93DF930E94E6217A
:104330000E94EE21C8EDD0E088818F778883888144
:104340008068888388818F7D888319BC1092A4023D
:104350001092A0021092A2021092A10200EE10E0B0
:10436000F80180818B7F808388818160888342E02F
:1043700060E080E00E94F420E1EEF0E080818E7F3A
:104380008083E2EEF0E080818160808380818860BC
:104390008083F80180818E7F80838881806188831B
:1043A000DF91CF911F910F910895E8EDF0E08081AA
:1043B0008F7E8083E7EDF0E080818160808384E000
:1043C00082BF81E08093A3020C949221E8EDF0E09B
:1043D00080818E7F80831092E20008951092DA002F
:1043E0001092E10008951F920F920FB60F921124C0
:1043F0002F933F934F935F936F937F938F939F93ED
:10440000AF93BF93EF93FF938091E10082FF0BC0C6
:104410008091E20082FF07C08091E1008B7F809352
:10442000E1000E945D248091DA0080FF19C0809134
:10443000D80080FF15C08091DA008E7F8093DA006B
:104440008091D90080FF96C080E189BD82E189BD5D
:1044500009B400FEFDCF81E08093A4020E94D21D2A
:104460008091E10080FF19C08091E20080FF15C0BB
:104470008091E2008E7F8093E2008091E200806173
:104480008093E2008091D80080628093D80019BCAC
:1044900085E08093A4020E94E41D8091E10084FFE6
:1044A0002BC08091E20084FF27C080E189BD82E1BA
:1044B00089BD89B5982F917080FFFBCF8091D8007E
:1044C0008F7D8093D8008091E1008F7E8093E10002
:1044D0008091E2008F7E8093E2008091E200816013
:1044E0008093E2008091A002882309F449C084E00F
:1044F0008093A4020E94E51D8091E10083FF29C002
:104500008091E20083FF25C08091E100877F809346
:10451000E10082E08093A4021092A0028091E10069
:104520008E7F8093E1008091E2008E7F8093E20095
:104530008091E20080618093E20042E060E080E0F0
:104540000E94F4208091F00088608093F0000E9427
:10455000E31DFF91EF91BF91AF919F918F917F915B
:104560006F915F914F913F912F910F900FBE0F90E0
:104570001F90189519BC1092A4020E94E01D70CFE4
:104580008091E30087FD93E09093A402B3CF1F9244
:104590000F920FB60F9211242F933F934F935F9377
:1045A0006F937F938F939F93AF93BF93CF93DF933B
:1045B000EF93FF93D091E900DF708091EC00C82F5A
:1045C000C17080FDC0E81092E9008091F000877F03
:1045D0008093F00078940E940B231092E900809160
:1045E000F00088608093F000CD2BCF70C093E9007D
:1045F000FF91EF91DF91CF91BF91AF919F918F91FB
:104600007F916F915F914F913F912F910F900FBECE
:104610000F901F9018951F93CF93DF93CDB7DEB700
:10462000AA970FB6F894DEBF0FBECDBF85EA92E021
:104630002091F100FC012193CF01F2E08D3A9F0718
:10464000B9F70E94FA1D8091E80083FF1EC1809196
:10465000A5029091A6029A3008F017C1E92FF0E068
:10466000ED5DFA4D0C948D24803899F0823809F074
:104670000CC18091A9028F70873008F006C1809329
:10468000E9008091EB0085FB882780F91092E90012
:1046900006C08091A1029091A20291118260909136
:1046A000E800977F9093E8008093F1001092F1006A
:1046B0008091E8008E77E5C0882309F4D3C082306A
:1046C00009F0E3C08091A7028111D6C08091A902B0
:1046D0008F702FEF280F263008F0D7C08093E900A5
:1046E0002091EB0020FFC8C0933031F48091EB00A3
:1046F00080628093EB00C0C09091EB00906190933A
:10470000EB0021E030E001C0220F8A95EAF7209308
:10471000EA001092EA008091EB008860EACF8111F4
:10472000B4C01091A7021F778091E3008078812B9D
:104730008093E3008091E800877F8093E8000E94E7
:1047400028218091E80080FFFCCF8091E300806801
:104750008093E30082E0111183E08093A40295C06E
:104760008058823008F091C08091A7029091A802F1
:104770008C3D23E09207A1F583E08A838AE2898356
:104780004FB7F894DE01139620E03EE051E2E32FAC
:10479000F0E050935700E49120FF03C0E295EF70E2
:1047A0003F5FEF708E2F90E0EA30C0F0C7968D9398
:1047B0009D932F5F243159F74FBF8091E800877F89
:1047C0008093E8006AE270E0CE0101960E943720F3
:1047D0008091E8008B778093E80057C0C096E7CFC0
:1047E0006091A9027091AA02AE014F5F5F4F0E94D3
:1047F0002A1FBC01892B09F448C09091E800977FDB
:104800009093E80089819A810E949520E1CF8038B9
:10481000E1F58091E800877F8093E8008091A00215
:104820008093F10045CF811130C09091A702923062
:1048300060F58091E800877F8093E8009093A00264
:104840000E9428218091A002882311F084E005C0F5
:104850008091E30087FDFACF81E08093A4020E945B
:10486000E61D13C08091A702813079F481E0933076
:1048700009F080E08093A2021092E9008091E800A4
:10488000877F8093E8000E9428218091E80083FFC1
:104890000AC08091E800877F8093E8008091EB0058
:1048A00080628093EB00AA960FB6F894DEBF0FBE2D
:1048B000CDBFDF91CF911F9108950895CF9380913F
:1048C000A4028823A1F0C091E900CF709091EC0080
:1048D000892F817090FD80E8C82B1092E9008091AB
:1048E000E80083FD0E940B23CF70C093E900CF91B5
:1048F000089597FB072E16F4009407D077FD09D092
:104900000E949A2407FC05D03EF4909581959F4F14
:104910000895709561957F4F0895EE0FFF1F0590E4
:10492000F491E02D0994692796276927782787272E
:1049300078270895AA1BBB1B51E107C0AA1FBB1F04
:10494000A617B70710F0A61BB70B881F991F5A951B
:10495000A9F780959095BC01CD010895F999FECFF6
:1049600092BD81BDF89A992780B50895A8E1B0E07D
:1049700042E050E00C94E224262FF999FECF92BD3C
:1049800081BDF89A019700B4021639F01FBA20BD14
:104990000FB6F894FA9AF99A0FBE08950396272F46
:1049A0000E94BD240E94BC24252F0E94BD24242FD8
:1049B0000C94BD240196272F0E94BD240C94BC2486
:1049C000DC01CB01FC01F999FECF06C0F2BDE1BDCF
:1049D000F89A319600B40D9241505040B8F70895BE
:1049E000F894FFCF240B310B580B640B6F0B7A0B31
:1049F0007D0B7D0B7D0B7D0B7D0B800B840B8C0B5E
:104A0000990BA60BA90BAC0BB90B231223127B122B
:104A10007B12CD12E91250125012F41280138F1330
:104A20008F13EB1350125012F4136914691472149B
:104A3000721474147214721472146914691479144F
:104A400072147214791434235C2345245C234524A6
:0A4A50008F23B0234524072413240C
:104A5A002808641E140A321E3D020A1D681D471DDD
:104A6A00431D3F1D01E200E900EA00B500B600B7A8
:104A7A0000CD008301CC008A019201940121022316
:104A8A000224022502260227022A02B300B4006F7A
:104A9A00007000818283323331F7F6F5F4939291F4
:104AAA00906694C697353436E200E900EA00B5000C
:104ABA00B600B700CD008301CC008A0192019401AF
:104ACA002102230224022502260227022A02B30017
:104ADA00B4006F0070008182834022B6A104C9032A
:084AEA00EB036E038703A70331
:00000001FF
